:020000040800F2
:100000000000022041060008190600081B0600082F
:100010001D0600081F060008210600080000000059
:10002000000000000000000000000000230600089F
:100030002506000800000000270600082906000821
:100040009106000891060008910600089106000834
:100050009106000891060008910600089106000824
:100060009106000891060008910600089106000814
:100070009106000891060008910600089106000804
:1000800091060008910600089106000891060008F4
:1000900091060008910600089106000891060008E4
:1000A00091060008910600089106000891060008D4
:1000B00091060008910600089106000891060008C4
:1000C00091060008910600089106000891060008B4
:1000D00091060008910600089106000891060008A4
:1000E0009106000891060008910600089106000894
:1000F0009106000891060008910600089106000884
:100100009106000891060008910600089106000873
:100110009106000891060008910600089106000863
:100120009106000891060008910600089106000853
:100130009106000891060008910600089106000843
:100140009106000891060008910600089106000833
:100150009106000891060008910600089106000823
:100160009106000891060008910600089106000813
:1001700091060008910600089106000800000000A2
:08018000910600089106000839
:1001880010B5054C237833B9044B13B10448AFF3C9
:1001980000800123237010BD0C0000200000000027
:1001A8001C0F000808B5034B1BB103490348AFF304
:1001B800008008BD00000000100000201C0F00088F
:1001C80053B94AB9002908BF00281CBF4FF0FF31B6
:1001D8004FF0FF3000F06AB9ADF1080C6DE904CEBC
:1001E80000F006F8DDF804E0DDE9022304B070470A
:1001F8002DE9F047089D0C46002B4ED194468C45BE
:100208008646B2FA82F262D94AB1C2F1200391401D
:1002180020FA03F30CFA02FC194300FA02FE4FEA33
:100228001C471FFA8CF6B1FBF7F44FEA1E4307FB95
:10023800141143EA014304FB06F199420AD91CEB65
:10024800030304F1FF3080F01281994240F20F81DC
:10025800023C6344591A1FFA8EF3B1FBF7F007FB0F
:10026800101143EA014300FB06F69E420AD91CEB33
:10027800030300F1FF3180F0FC809E4240F2F980D8
:10028800634402389B1B40EA044000211DB1D3405F
:100298000022C5E90032BDE8F0878B4205D90DB1CF
:1002A800C5E9000100210846F5E7B3FA83F1002902
:1002B80046D1A34202D39042C0F0F080861A64EB84
:1002C80003030120002DE6D0C5E90063E3E7002A17
:1002D80040F09080A1EB0C044FEA1C481FFA8CF701
:1002E8000121B4FBF8F64FEA1E4308FB164443EA23
:1002F800044307FB06F0984208D91CEB030306F1F8
:10030800FF3402D2984200F2CD8026461C1A1FFA0A
:100318008EF3B4FBF8F008FB104443EA044300FBF7
:1003280007F79F4208D91CEB030300F1FF3402D200
:100338009F4200F2B0802046DB1B40EA0640A5E75A
:10034800C1F120068B4022FA06F71F4320FA06FC6B
:1003580004FA01F343EA0C03F44000FA01F8380CFC
:100368004FEA1349B4FBF0FE1FFA87FC00FB1E445A
:1003780049EA04440EFB0CF9A14502FA01F20AD934
:100388003C190EF1FF3A80F08480A14540F281804B
:10039800AEF1020E3C44A4EB09041FFA83F9B4FB46
:1003A800F0F300FB134449EA044403FB0CFCA445A6
:1003B80007D93C1903F1FF3067D2A44565D9023B40
:1003C8003C4443EA0E40A0FB0293A4EB0C049C427D
:1003D800CE469C4651D34ED055B1B8EB0E0364EBD4
:1003E8000C0404FA06F6CB401E43CC40C5E9006471
:1003F800002150E7C2F1200320FA03F10CFA02FCB5
:1004080024FA03F394400C434FEA1C4800FA02FE16
:100418001FFA8CF7B3FBF8F008FB1031230C43EA02
:10042800014300FB07F1994208D91CEB030300F1D3
:10043800FF362CD299422AD9023863445B1AA4B2F7
:10044800B3FBF8F108FB113344EA034401FB07F35B
:10045800A34208D91CEB040401F1FF3613D2A342CE
:1004680011D902396444E41A41EA004139E70446E3
:10047800F0E6084606E7C845AED2B9EB020E63EBD4
:10048800070C0138A8E73146EDE7034699E73046FF
:10049800D4E7D6467FE7634402384DE7064623464D
:1004A80008460FE7023E634430E700BF704700BFCD
:1004B80010B586B01422002101A800F0FFFC00232B
:1004C80000930F4B0F4C1A6B42F020021A631B6B00
:1004D80003F020030093204601224FF4E061009BC3
:1004E80000F068FA01234FF4E06201A92046CDE943
:1004F8000123CDE9033300F085F906B010BD00BF34
:10050800003802400014024000B595B02C220021AA
:1005180009A800F0D3FC1422002103A800F0CEFCA7
:100528000023194A0193116C41F080511164126C37
:1005380002F080520192019A144A0293116841F420
:100548008041116012680E9302F480420292029A6E
:100558000222089201201022CDE90B0208A800F01F
:1005680037FA014608B172B6FEE70F23CDE903302A
:10057800CDE90500079003A800F006FC08B172B6A3
:10058800FEE715B05DF804FB00380240007000403B
:1005980008B500F09FF8FFF7B7FFFFF789FF0D4C8C
:1005A8004FF48071204600F00AFA642000F0BEF88B
:1005B8004FF40071204600F002FA642000F0B6F80B
:1005C80020464FF4806100F0FAF9642000F0AEF89C
:1005D800E6E700BF0014024082B00C4B00210091F6
:1005E8005A6C42F480425A645A6C02F48042009277
:1005F800009A01911A6C42F080521A641B6C03F045
:1006080080530193019B02B0704700BF003802403D
:10061800FEE7FEE7FEE7FEE7FEE770477047704734
:1006280000F072B8034AD2F8883043F47003C2F875
:100638008830704700ED00E0DFF834D0FFF7F2FFB4
:100648000C480D490D4A002302E0D458C450043325
:10065800C4188C42F9D30A4A0A4C002301E01360FB
:100668000432A242FBD300F031FCFFF791FF704740
:1006780000000220000000200C000020540F000899
:100688000C0000202C000020FEE7000038B50E4BBF
:100698001A784FF47A73B3FBF2F30C4A05461068E4
:1006A800B0FBF3F000F09AF8044658B90F2D09D8BA
:1006B800024629464FF0FF3000F05EF8044B204612
:1006C8001D6038BD0120FCE7040000200000002068
:1006D8000800002008B50B4B1A6842F400721A6033
:1006E8001A6842F480621A601A6842F480721A60CA
:1006F800032000F02FF80F20FFF7C8FFFFF76CFF6B
:10070800002008BD003C0240034A044B11681B78D6
:100718000B441360704700BF28000020040000202D
:10072800014B1868704700BF2800002038B5044600
:10073800FFF7F6FF631C1CBF054B1B78054618BF67
:10074800E418FFF7EDFF431BA342FAD338BD00BFFF
:10075800040000200749CA6822F4E0620302120478
:1007680003F4E063120C134343F0BF6343F4003314
:10077800CB60704700ED00E0164B30B5DC68C4F381
:100788000224C4F10703251D042B28BF0423062DCA
:100798004FF0FF358CBF033C002405FA03F321EA30
:1007A8000303A54022EA0502A340002843EA020306
:1007B800ACBF00F16040084A4FEA0313B8BF00F02D
:1007C8000F00DBB2AABF00F56140135480F8003374
:1007D80030BD00BF00ED00E014ED00E00138B0F1DD
:1007E800807F0BD24FF0E023054A5861F02182F850
:1007F80023100020072298611A6170470120704772
:1008080000ED00E02DE9F74FDFF8A491664A0023D8
:100818000D6801249C4004EA0506AC4340F0AF8013
:100828004D68032705F003044FEA430807FA08FC5C
:10083800671E012F6FEA0C0C34D8876807EA0C0E84
:10084800CF6807FA08F747EA0E078760476827EA7C
:10085800060EC5F300179F4047EA0E074760C768B2
:1008680007EA0C0E8F6807FA08F747EA0E07022C0A
:10087800C76019D14FEAD30A00EB8A0A03F0070BC5
:10088800DAF820704FEA8B0B4FF00F0E0EFA0BFEC2
:1008980027EA0E0E0F6907FA0BF747EA0E07CAF8A0
:1008A800207001E0032CDAD1076804FA08F407EA9B
:1008B8000C073C4315F4403F046060D000240194C9
:1008C800D9F8444044F48044C9F84440D9F8444035
:1008D80023F0030707F1804704F4804407F59C37A9
:1008E800019403F0030C019CD7F808E04FEA8C0C44
:1008F8000F2404FA0CF42EEA040E2C4CA04245D026
:1009080004F58064A04243D004F58064A04241D03D
:1009180004F58064A0423FD004F58064A0423DD035
:1009280004F58064A0423BD004F58064A04239D02D
:1009380004F58064A04214BF0824072404FA0CF4C8
:1009480044EA0E04BC609468F74315F4801F0CBF9A
:100958003C4034439460D46815F4001F0CBF3C40FD
:100968003443D460546815F4003F0CBF3C40344312
:1009780054601468ED0354BF3C40344314600133A1
:10098800102B7FF445AF03B0BDE8F08F0024D5E706
:100998000124D3E70224D1E70324CFE70424CDE7D9
:1009A8000524CBE70624C9E7003C014000000240CB
:1009B800003802400AB1816170470904FBE74369C6
:1009C80001EA030221EA030141EA02418161704719
:1009D8002DE9F341044640B30368DE0710D42368C9
:1009E8009D075BD42368190700F19D8023685A0787
:1009F80000F1BD80A369002B40F0248100202CE089
:100A08008D4B9A6802F00C02042A07D09A6802F00B
:100A18000C02082A0BD15B68590208D5864B1B6863
:100A28009A03DCD56368002BD9D1012015E06368EF
:100A3800814DB3F5803F13D12B6843F480332B608D
:100A4800FFF76EFE7C4E054633689B03C7D4FFF75D
:100A580067FE401B6428F7D9032002B0BDE8F08187
:100A6800B3F5A02F04D12B6843F480232B60E3E770
:100A78002A6822F480322A602A6822F480222A60B6
:100A8800002BDDD1FFF74CFE06462B689F03A6D549
:100A9800FFF746FE801B6428F7D9DDE7664B9A68A6
:100AA80012F00C0F07D09A6802F00C02082A11D134
:100AB8005B685D020ED4604A1368990702D5E36843
:100AC800012BB2D11368216923F0F80343EAC1036B
:100AD800136087E7E268594BB2B101221A60FFF749
:100AE8001FFE554D06462B689B0707D52B682269C4
:100AF80023F0F80343EAC2032B6073E7FFF710FE05
:100B0800801B0228EFD9A7E71A60FFF709FE4A4EB3
:100B1800054633689F077FF565AFFFF701FE401B69
:100B28000228F6D998E76269444B82B10122C3F8DA
:100B3800802EFFF7F5FD404E0546736F9B073FF586
:100B480055AFFFF7EDFD401B0228F6D984E7C3F83F
:100B5800802EFFF7E5FD384E0546736F9F077FF53A
:100B680045AFFFF7DDFD401B0228F6D974E7324B8D
:100B78001A6C12F0805228D101921A6C42F08052FD
:100B88001A641B6C03F080530193019B01272C4DC1
:100B98002B68D8051BD5A368274D012B27D12B6FB0
:100BA80043F001032B67FFF7BBFD234E054641F2D7
:100BB8008838336F9A0739D5002F3FF41BAF1E4A88
:100BC800136C23F08053136414E70027DFE72B68C6
:100BD80043F480732B60FFF7A3FD06462B68D90505
:100BE800D9D4FFF79DFD801B0228F7D934E7052BE0
:100BF80004D12B6F43F004032B67D0E72A6F22F050
:100C080001022A672A6F22F004022A67002BCAD140
:100C1800FFF786FD41F2883806462B6F9B07CBD538
:100C2800FFF77EFD801B4045F7D915E7FFF778FDF4
:100C3800401B4045BDD90FE700380240000047423D
:100C480000700040374DAA6802F00C02082A3ED016
:100C5800022B354B4FF000021A662BD1FFF760FDCF
:100C680006462B6899011FD4D4E907321343626AF8
:100C780043EA8213E26A43EA0263A26A5208013A2B
:100C880043EA02436B60284B264D01221A66FFF7A0
:100C980047FD04462B689A013FF5B0AEFFF740FDCB
:100CA800001B0228F6D9D7E6FFF73AFD801B022879
:100CB800D7D9D1E6FFF734FD04462B689B017FF5B1
:100CC8009DAEFFF72DFD001B0228F6D9C4E6012BC7
:100CD8003FF4ABAE6B68E26903F4800191427FF4A4
:100CE800A4AE216A03F03F028A427FF49EAE616A95
:100CF80047F6C0721A40B2EB811F7FF496AEA26A23
:100D0800520803F44031013AB1EB024F7FF48DAE43
:100D1800E26A03F07063B3EB026F14BF0120002096
:100D28009BE600BF0038024000004742134908B55F
:100D38008B6803F00C03042B1CD0082B1CD14A68C9
:100D48004B68496813F4800314BF0D480D48C1F37C
:100D5800881118BF002302F03F02A1FB0001FFF732
:100D68002FFA064B5B68C3F3014301335B00B0FB0A
:100D7800F3F008BD0248FCE70248FAE700380240F1
:100D880040787D010024F4002DE9F0410D46044629
:100D980010B90120BDE8F081434B1A6802F0070240
:100DA8008A4228D321688F072DD4C80740D43E4BE8
:100DB8001A6802F00702AA4265D8226851076BD464
:100DC800130707D5394A2169936823F4604343EA36
:100DD800C1039360FFF7AAFF344B354A9B68C3F3FE
:100DE8000313D35CD840334B1860334B1868FFF7B4
:100DF8004DFC0020CEE7CAB21A701B6803F0070347
:100E08008B42C6D1CEE7294B11F0040F1EBF9A685A
:100E180042F4E0529A600E0742BF9A6842F4604278
:100E28009A609A68A06822F0F00202439A60BCE7D0
:100E380062681E4B012A1CD11B6813F4003FA8D01E
:100E48001A4EB36823F003031343B360FFF768FC3B
:100E580041F288380746B368626803F00C03B3EBC5
:100E6800820FA4D0FFF75CFCC01B4045F3D90320D8
:100E780090E7911E01291B6802D813F0007FDEE776
:100E880013F0020FDBE7EAB21A701B6803F00703DE
:100E9800AB427FF47EAF90E70449E0688B6823F4A7
:100EA800E05303438B608BE7003C0240003802406C
:100EB800340F000800000020080000200244034608
:100EC800934200D1704703F8011BF9E770B50D4D47
:100ED8000D4C641BA4100026A64209D10B4D0C4CE6
:100EE80000F018F8641BA4100026A64205D170BDB6
:100EF80055F8043B98470136EEE755F8043B984708
:100F08000136F2E74C0F00084C0F00084C0F0008A0
:100F1800500F0008F8B500BFF8BC08BC9E467047E3
:0C0F2800F8B500BFF8BC08BC9E4670473E
:100F34000000000000000000010203040607080985
:080F4400B4F2FF7F0100000080
:040F4C00AD010008EB
:040F5000890100080B
:0C0F54000024F400010000001000000068
:0400000508000641A8
:00000001FF
